:020000040800F2
:1000000000500020CD140008490400084B040008EB
:100010004D0400084F0400085104000800000000CF
:100020000000000000000000000000005304000871
:100030005504000800000000570400085904000897
:1000400015150008151500081515000815150008E8
:1000500015150008151500081515000815150008D8
:1000600015150008151500081515000815150008C8
:1000700015150008151500081515000815150008B8
:1000800015150008151500081515000815150008A8
:100090001515000815150008151500081515000898
:1000A0001515000815150008151500081515000888
:1000B0001515000815150008151500081515000878
:1000C0001515000815150008151500081515000868
:1000D0001515000815150008151500081515000858
:1000E000151500081515000815150008000000007A
:1000F0000000000000000000000000000000000000
:0C01000000000000000000005FF808F1A3
:10010C0010B5054C237833B9044B13B10448AFF345
:10011C0000800123237010BD0C00002000000000A3
:10012C006015000808B5034B1BB103490348AFF336
:10013C00008008BD000000001000002060150008C1
:10014C0010B586B0144B9A6942F010029A619A6904
:10015C0002F010020092009A9A6942F004029A612D
:10016C009B6903F004030193019B0C4C00224FF498
:10017C000051204600F098FF4FF4005302930123E6
:10018C000393002304930223059302A9204600F055
:10019C007BFE06B010BD00BF0010024000100140F5
:1001AC00044B586000229A60024B1B6813F4803F8A
:1001BC00FAD0704710E000E0037803F0FC0343F042
:1001CC00040303F087036FF3C7130370437803F042
:1001DC0080036FF3C71343707047000030B583B0D2
:1001EC0004468DF80400C0F3052343F040038DF85A
:1001FC0005300C4D0A23012201A9284601F06AF8AA
:10020C00C4F387338DF80430C4F3855444F04004B0
:10021C008DF805400A23012201A9284601F05AF85D
:10022C0003B030BD6800002000B583B04FF400531C
:10023C00ADF804300A23012201A9034801F04AF861
:10024C0003B05DF804FB00BF6800002000B583B06C
:10025C004FF40453ADF804300A23012201A90348DA
:10026C0001F038F803B05DF804FB00BF6800002013
:10027C0008B528B1012807D0FFF7E8FF002002E0FD
:10028C00FFF7D2FF012008BDFFF7E0FF0020FAE7DF
:10029C00FEE7000000B587B01748184B0360002339
:1002AC0043608360C36003614361836100F05EFA65
:1002BC0090B94FF48053029302A90F4800F096F9BD
:1002CC0078B900230093019369460B4800F068FA53
:1002DC0060B907B05DF804FB4FF488710848FFF76C
:1002EC00D7FF4FF48B710648FFF7D2FF40F21D1178
:1002FC000348FFF7CDFF00BF28000020002C014071
:10030C007815000808B51048104B03604FF4827341
:10031C004360002383604FF40062C26002220261DA
:10032C0043614FF4802282611822C26103624362EE
:10033C0083620A23C36200F08DFF00B908BDFB2164
:10034C000348FFF7A5FF00BF680000200030014004
:10035C007815000800B591B00223069301220A9289
:10036C0010220B920D9300230E934FF420130F9336
:10037C0006A800F09FFA10BB0F23019302230293EF
:10038C00002303934FF4806204920593012101A88A
:10039C0000F0B6FCB8B900F071FD0D4BA3FB0030BA
:1003AC00800900F0CDFE042000F0E0FE0022114692
:1003BC004FF0FF3000F090FE11B05DF804FBCB2144
:1003CC000448FFF765FFD9210248FFF761FF00BF22
:1003DC00D34D62107815000870B582B000F030FA79
:1003EC00FFF7B8FFFFF7ACFEFFF754FFFFF78AFFEC
:1003FC000F4B4FF000725A6001A8FFF7DDFE4FF46F
:10040C000050FFF7EBFE00240A4E4FF4005333610B
:10041C00094D2846FFF7C4FE2046FFF729FF044686
:10042C004FF0005333612846FFF7BAFEECE700BFEC
:10043C000000014000100140006CDC027047FEE738
:10044C00FEE7FEE7FEE770477047704708B500F01F
:10045C0009FA00F09CFE08BD00B583B0244B9A69E4
:10046C0042F001029A619A6902F001020092009A2C
:10047C00DA6942F08052DA61DB6903F08053019350
:10048C00019B032000F016FE002211466FF00B00BA
:10049C0000F022FE002211466FF00A0000F01CFE54
:1004AC00002211466FF0090000F016FE00221146E2
:1004BC006FF0040000F010FE002211466FF00300F4
:1004CC0000F00AFE002211466FF0010000F004FE5D
:1004DC00002211464FF0FF3000F0FEFD054A536834
:1004EC0023F0E06343F00073536003B05DF804FB4A
:1004FC0000100240000001400268134B9A4200D0E9
:10050C00704710B586B003F560439A6942F4805287
:10051C009A619B6903F480530193019BB02302936E
:10052C000223039303230593084C02A9204600F0F1
:10053C00ABFC4023029300230393049302A92046AF
:10054C0000F0A2FC06B010BD0030014000080140D4
:10055C000268094B9A4200D0704782B003F564439D
:10056C009A6942F400629A619B6903F400630193F7
:10057C00019B02B0704700BF002C014030B4036AED
:10058C00056A25F001050562846924F0F00444EA4B
:10059C00021423F00A030B438461036230BC7047DE
:1005AC0030B4056A25F0100505628469036A24F4E9
:1005BC00704444EA023423F0A00343EA011384613B
:1005CC00036230BC7047836823F0700341F007016D
:1005DC0019438160704710B4846824F47F4442EA64
:1005EC0003220A432243826010BC704790F83C30CF
:1005FC00012B7ED010B50446012380F83C30022339
:10060C0080F83D300268936823F47F4323F077032E
:10061C0093600B68502B49D019D8202B5FD00DD983
:10062C00302B61D0402B3AD1CA6849680068FFF77B
:10063C00A5FF40212068FFF7C6FF30E0002B49D012
:10064C00102B2CD110210068FFF7BDFF27E0B3F56C
:10065C00805F1FD00ED9B3F5005F20D1CB684A68FC
:10066C0089680068FFF7B7FF2268936843F48043FA
:10067C00936014E0602B23D0702B10D1CB684A68A8
:10068C0089680068FFF7A7FF2268936843F0770337
:10069C00936004E00268936823F0070393600123DE
:1006AC0084F83D30002084F83C0010BDCA684968CD
:1006BC000068FFF763FF50212068FFF784FFEEE727
:1006CC00CA6849680068FFF76BFF60212068FFF774
:1006DC007AFFE4E700210068FFF775FFDFE72021D0
:1006EC000068FFF770FFDAE730210068FFF76BFF57
:1006FC00D5E702207047000003681B4A90420AD0DD
:10070C00B0F1804F07D0A2F59432904203D002F59D
:10071C008062904203D123F070034A681343124A5B
:10072C0090420AD0B0F1804F07D0A2F5943290429B
:10073C0003D002F58062904203D123F44073CA685F
:10074C00134323F080034A69134303608B68C3622D
:10075C000B688362044B984202D0012343617047BB
:10076C000B690363F9E700BF002C0140B0B110B571
:10077C00044690F83D3063B1022384F83D302146A5
:10078C0051F8040BFFF7B8FF012384F83D3000202B
:10079C0010BD80F83C30FFF7DBFEEDE70120704721
:1007AC0090F83C30012B22D030B4012280F83C2050
:1007BC00022380F83D300468636823F070036360A3
:1007CC00046863680D682B4363600468A36823F0B6
:1007DC008003A3600468A36849680B43A36080F896
:1007EC003D20002380F83C30184630BC7047022076
:1007FC007047000010B504460E4B18784FF47A730E
:10080C00B3FBF0F30C4A1068B0FBF3F000F098FC6B
:10081C0068B90F2C01D901200AE0002221464FF0C3
:10082C00FF3000F059FC054B1C60002000E001205B
:10083C0010BD00BF000000200800002004000020B4
:10084C0008B5074A136843F010031360032000F047
:10085C0031FC0020FFF7CEFFFFF7FEFD002008BDA6
:10086C0000200240034A1168034B1B780B441360B1
:10087C00704700BFC000002000000020014B18682A
:10088C00704700BFC000002082B0084B1B68084AAC
:10089C00A2FB03235B0A00FB03F3019300BF019B44
:1008AC005A1E0192002BF9D102B0704708000020AB
:1008BC00D34D621070B582B00446036813F0010F7B
:1008CC002CD0AB4B5B6803F00C03042B1DD0A84B56
:1008DC005B6803F00C03082B12D06368B3F5803F00
:1008EC0041D0002B55D103F1804303F504331A6832
:1008FC0022F480321A601A6822F480221A6037E0DF
:10090C009B4B5B6813F4803FE7D0994B1B6813F447
:10091C00003F03D06368002B00F0AE81236813F016
:10092C00020F75D0924B5B6813F00C0F5FD0904B9D
:10093C005B6803F00C03082B54D02369002B00F0E8
:10094C0089808C4B01221A60FFF798FF0546884B73
:10095C001B6813F0020F74D1FFF790FF401B0228A5
:10096C00F5D903208DE1824A136843F48033136078
:10097C00636843B3FFF782FF05467D4B1B6813F496
:10098C00003FCBD1FFF77AFF401B6428F5D9032039
:10099C0077E1B3F5A02F09D0754B1A6822F4803299
:1009AC001A601A6822F480221A60E1E703F180438E
:1009BC00A3F53C331A6842F480221A601A6842F498
:1009CC0080321A60D4E7FFF759FF0546684B1B6865
:1009DC0013F4003FA2D0FFF751FF401B6428F5D958
:1009EC0003204EE1624B5B6813F4803FA5D1604B52
:1009FC001B6813F0020F03D02369012B40F03E81DA
:100A0C005B4A136823F0F803616943EAC10313607E
:100A1C00236813F0080F32D0A369002B45D0564B36
:100A2C0001221A60FFF72AFF0546514B5B6A13F04F
:100A3C00020F21D1FFF722FF401B0228F5D903201A
:100A4C001FE14B4A136823F0F803616943EAC103C1
:100A5C001360DDE7474B00221A60FFF70FFF0546D6
:100A6C00434B1B6813F0020FD2D0FFF707FF401B5C
:100A7C000228F5D9032004E10120FFF705FF2368C4
:100A8C0013F0040F00F09880394BDB6913F0805F92
:100A9C001DD1374BDA6942F08052DA61DB6903F021
:100AAC0080530193019B012512E0334B00221A6005
:100ABC00FFF7E4FE05462E4B5B6A13F0020FDED007
:100ACC00FFF7DCFE401B0228F5D90320D9E00025F6
:100ADC002A4B1B6813F4807F11D0E368012B22D0C2
:100AEC00002B38D103F1804303F504331A6A22F04A
:100AFC0001021A621A6A22F004021A6218E01F4AF2
:100B0C00136843F480731360FFF7B8FE06461B4B63
:100B1C001B6813F4807FE0D1FFF7B0FE801B6428C4
:100B2C00F5D90320ADE0124A136A43F001031362B6
:100B3C00E3687BB3FFF7A2FE06460D4B1B6A13F06E
:100B4C00020F38D1FFF79AFE801B41F2883398428E
:100B5C00F3D9032095E0052B12D0054B1A6A22F02D
:100B6C0001021A621A6A22F004021A62E0E700BF5C
:100B7C0000100240000042428004424200700040DB
:100B8C00424B1A6A42F004021A621A6A42F00102DB
:100B9C001A62CDE7FFF772FE06463C4B1B6A13F058
:100BAC00020F08D0FFF76AFE801B41F2883398428F
:100BBC00F3D9032065E0E5B9E369002B60D0334A33
:100BCC00526802F00C02082A5DD0022B17D0304B71
:100BDC0000221A60FFF752FE04462C4B1B6813F0E0
:100BEC00007F47D0FFF74AFE001B0228F5D90320EF
:100BFC0047E0264AD36923F08053D361DCE7244BCA
:100C0C0000221A60FFF73AFE0546204B1B6813F0D2
:100C1C00007F06D0FFF732FE401B0228F5D90320D7
:100C2C002FE0236AB3F5803F1AD018494B6823F4A0
:100C3C007413226A606A024313434B60144B012203
:100C4C001A60FFF71BFE0446104B1B6813F0007F65
:100C5C000ED1FFF713FE001B0228F5D9032010E07C
:100C6C000A4A536823F40033A1680B435360DCE752
:100C7C00002006E0002004E0012002E0012000E05A
:100C8C00002002B070BD0120FBE700BF0010024045
:100C9C006000424286B0164B0FCB0DF1180C0CE9DC
:100CAC000F0040F20123ADF80430124B5B6803F0E7
:100CBC000C02082A02D0104806B07047C3F38342D6
:100CCC00624412F8102C13F4803F0CD0094B5B6873
:100CDC00C3F34043634413F8143C074800FB02F091
:100CEC00B0FBF3F0E8E7054800FB02F0E4E700BFD7
:100CFC00841500080010024000127A0000093D0023
:100D0C0070B504460D46594B1B6803F007038B4224
:100D1C000BD2564A136823F007030B431360136876
:100D2C0003F007038B4240F09A80236813F0020F04
:100D3C0006D04F4A536823F0F003A1680B4353606D
:100D4C00236813F0010F52D06368012B23D0022BC0
:100D5C0028D0474A126812F0020F00F082804449F2
:100D6C004A6822F0030213434B60FFF787FD0646E7
:100D7C006368012B1DD0022B2AD03D4B5B6813F00E
:100D8C000C0F34D0FFF77AFD831B41F2883293426B
:100D9C00F3D9032062E0364A126812F4003FDED128
:100DAC0001205BE0324A126812F0007FD7D101209B
:100DBC0054E02F4B5B6803F00C03042B17D0FFF7A8
:100DCC005DFD831B41F288329342F2D9032045E04A
:100DDC00274B5B6803F00C03082B08D0FFF74EFD84
:100DEC00801B41F288339842F2D9032036E01F4B26
:100DFC001B6803F00703AB420AD91C4A136823F0A3
:100E0C0007032B431360136803F00703AB422AD18B
:100E1C00236813F0040F06D0154A536823F4E063DB
:100E2C00E1680B435360236813F0080F07D0104A96
:100E3C00536823F46053216943EAC1035360FFF7FD
:100E4C0029FF0B4B5B68C3F303130A4AD35CD840EE
:100E5C00094B18600020FFF7CDFC002070BD01206D
:100E6C00FCE70120FAE70120F8E700BF0020024070
:100E7C00001002409815000808000020014B18686B
:100E8C00704700BF08000020F0B482B000252C464B
:100E9C00A3E07F4FBB4210D007D97E4FBB420CD092
:100EAC0007F58037BB4208D013E0A7F58017BB428B
:100EBC0003D007F57027BB4207D18B68002B58D0A5
:100ECC00012B51D04261082503E0A7F58017BB42E6
:100EDC00F3D0FF2E4FD88446FF2E4FD8A200DCF85B
:100EEC0000300F27974023EA070305FA02F2134359
:100EFC00CCF800304B6813F0805F6DD0664B9A696C
:100F0C0042F001029A619B6903F001030193019B7A
:100F1C00A208971C614B53F8273004F00307BF005D
:100F2C004FF00F0C0CFA07FC23EA0C0C5C4B9842AC
:100F3C002AD003F58063984200F08A8003F5806321
:100F4C00984200F0878003F5806398421AD00423FE
:100F5C001BE0CD68BDE7CD680435BAE7CD68083530
:100F6C00B7E7CD680C35B4E702610825B1E7002579
:100F7C00AFE70425ADE700F1040CADE7A4F10802DE
:100F8C009200ACE7032300E00023BB4043EA0C03D0
:100F9C000232424F47F822304B6813F4803F5BD04B
:100FAC00404A1368334313604B6813F4003F59D025
:100FBC003C4A5368334353604B6813F4801F57D03B
:100FCC00384A9368334393604B6813F4001F55D031
:100FDC00344AD3681E43D66001340F2C54D80122F6
:100FEC00A2400B6803EA020632EA0303F4D14B6811
:100FFC00122B3FF64EAF122B3FF66BAF01A757F8F3
:10100C0023F000BFC70E00085F0F0008690F00082F
:10101C007B0F0008DF0E0008DF0E0008DF0E000853
:10102C00DF0E0008DF0E0008DF0E0008DF0E0008E0
:10103C00DF0E0008DF0E0008DF0E0008DF0E0008D0
:10104C00DF0E0008DF0E0008630F00086F0F0008AA
:10105C0001239AE7022398E7124A136823EA06034E
:10106C001360A1E70F4A536823EA06035360A3E712
:10107C000C4A936823EA06039360A5E7094AD368F0
:10108C0023EA0606D660A7E702B0F0BC704700BFA3
:10109C00000022100000311000100240000001403E
:1010AC0000080140000401400AB1016170470904C5
:1010BC0001617047074AD36823F4E0631B041B0CDF
:1010CC00000200F4E060034343F0BF6343F40033D9
:1010DC00D360704700ED00E030B4174BDB68C3F30E
:1010EC000223C3F10704042C28BF04241D1D062D64
:1010FC0018D9033B4FF0FF3505FA04F421EA04013B
:10110C00994005FA03F322EA0303194300280BDB89
:10111C000901C9B200F1604000F5614080F800138C
:10112C0030BC70470023E5E700F00F000901C9B29D
:10113C00024B1954F4E700BF00ED00E014ED00E0A1
:10114C000138B0F1807F0AD2064B5860064AF02174
:10115C0082F823100020986007221A607047012043
:10116C00704700BF10E000E000ED00E0042805D05F
:10117C00054A136823F0040313607047024A13688E
:10118C0043F004031360704710E000E0704708B5AB
:10119C00FFF7FCFF08BD2DE9F041064688461746CF
:1011AC001D463BE02DB1FFF769FB069BC01AA84218
:1011BC0034D33268536823F0E00353607368B3F59B
:1011CC00827F0BD0B36AB3F5005F14D0012386F88D
:1011DC005130002386F85030032027E0B368B3F574
:1011EC00004F02D0B3F5806FECD13268136823F056
:1011FC0040031360E6E73268136823F400531B04C2
:10120C001B0C13603268136843F400531360DDE762
:10121C000124BC4209D0B5F1FF3FC3D13468A468A6
:10122C0038EA0403F4D00024F3E70020BDE8F08191
:10123C0010B582B004460B46009200228021FFF7C5
:10124C00AAFF08B902B010BD636D43F020036365BB
:10125C000320F7E700283BD010B504460023836237
:10126C0090F85130002B2ED0022384F85130226894
:10127C00136823F0400313606368A2681343E268A9
:10128C0013432269134362691343A26902F4007287
:10129C001343E2691343226A1343A16A22680B4386
:1012AC001360638B03F00403616A22680B43536081
:1012BC002268D36923F40063D361002060650123A5
:1012CC0084F8513010BD80F85030FFF715F9CBE79A
:1012DC00012070472DE9F04385B01D4690F8503041
:1012EC00012B00F0C48004460E469146012380F881
:1012FC005030FFF7C3FA804694F85170FFB2012FBB
:10130C0040F0AA80002E00F0A880B9F1000F00F088
:10131C00A480032384F85130002363652663A4F86A
:10132C003490A4F83690A363A387E38763642364A3
:10133C00A368B3F5004F1CD023681A6812F0400F55
:10134C0003D11A6842F040021A60E368B3F5006FEB
:10135C0015D063681BB1E38E9BB2012B41D123687E
:10136C0016F8012B1A73E38E9BB2013B9BB2E386FA
:10137C0037E02268136843F480431360DCE763684A
:10138C001BB1E38E9BB2012B0DD1236836F8022BD7
:10139C00DA60E38E9BB2013B9BB2E38603E0D5B1EE
:1013AC00B5F1FF3F11D1E38E9BB2002B32D02368F5
:1013BC009A6812F0020FF2D036F8022BDA60E38E44
:1013CC009BB2013B9BB2E386EDE7FFF757FAA0EB2C
:1013DC000800A842E7D303273FE0CDB1B5F1FF3FAA
:1013EC0010D1E28E92B2AAB123689A6812F0020F61
:1013FC00F3D016F8012B1A73E28E92B2013A92B224
:10140C00E286EEE7FFF73AFAA0EB0800A842E8D331
:10141C00032722E0CDF800802B4601220221204632
:10142C00FFF7B9FE08B1032717E0424629462046CC
:10143C00FFF7FEFE034660B9A26832B90392226838
:10144C00D168039192680392039A626D2AB91F4680
:10145C0003E02023636500E00227012384F8513068
:10146C00002384F85030384605B0BDE8F0830227DD
:10147C00F9E700000F4B1A6842F001021A60596834
:10148C000D4A0A405A601A6822F0847222F48032A3
:10149C001A601A6822F480221A605A6822F4FE023A
:1014AC005A604FF41F029A60044B4FF000629A602E
:1014BC00704700BF001002400000FFF800ED00E094
:1014CC00002103E00B4B5B58435004310A480B4B93
:1014DC0042189A42F6D30A4A02E0002342F8043B2F
:1014EC00084B9A42F9D3FFF7C5FF00F00FF8FEF74F
:1014FC0073FF7047B0150008000000200C0000209E
:10150C000C000020C4000020FEE7000070B500268F
:10151C000C4D0D4C641BA410A64209D100F01AF816
:10152C0000260A4D0A4C641BA410A64205D170BDBE
:10153C0055F8043B98470136EEE755F8043B9847BD
:10154C000136F2E7A8150008A8150008A815000830
:10155C00AC150008F8B500BFF8BC08BC9E46704737
:0C156C00F8B500BFF8BC08BC9E467047F4
:101578005372632F6D61696E2E63000002030405C8
:10158800060708090A0B0C0D0E0F101000000000CA
:10159800000000000000000001020304060708091B
:0415A8003101000805
:0415AC000D01000825
:0C15B000010000001000000000A24A042E
:04000005080014CD0E
:00000001FF
